:020000040800F2
:1000000000000220D9A0000829A1000829A10008A9
:1000100029A1000829A1000829A10008000000006A
:1000200000000000000000000000000029A10008FE
:1000300029A100080000000029A100087378000829
:1000400029A1000829A1000829A1000829A1000868
:1000500029A1000829A100086D790008737900081A
:10006000797900087F7900088579000829A10008BE
:1000700029A1000829A1000829A1000829A1000838
:1000800029A1000829A1000829A1000829A1000828
:1000900029A1000829A1000829A100088B790008DE
:1000A000FD6A0008156A0008116B0008396A00082B
:1000B0004D6A0008616A0008756A0008E53A0008A0
:1000C000F13A0008FD3A0008093B000829A10008A0
:1000D00029A100083D8300085583000871830008AA
:1000E000B379000829A10008F98F0008256B0008E2
:1000F000C56A0008396B0008E96A000829A10008F0
:1001000029A1000829A10008896A000829A100087E
:100110008D830008A58300089D6A0008B16A000865
:1001200029A1000829A1000829A1000829A1000887
:1001300029A1000829A1000829A1000829A1000877
:1001400029A1000829A1000829A10008ED8F0008B5
:1001500029A1000829A1000829A10008BD830008E1
:10016000153B0008213B000829A1000829A100082F
:1001700029A1000829A1000829A100080000000009
:0801800029A1000829A10008D3
:10019000034613F8012B002AFBD1181A01387047C7
:1001A00001F0FF01102A2BDB10F0070F08D010F828
:1001B000013B013A8B422DD010F0070F42B3F6D12C
:1001C000F0B441EA012141EA014122F007047FF045
:1001D00000070023F0E80256083C85EA010586EA9C
:1001E000010685FA47F5A3FA87F586FA47F6A5FAD8
:1001F00087F68EB9EED1F0BC01F0FF0102F00702E4
:1002000032B110F8013B013A83EA010313B1F8D18E
:100210000020704701387047002D06BF354603386F
:10022000073815F0010F07D1013015F4807F02BFA8
:10023000013015F4C03F0130F0BC0138704700BFF9
:1002400081F0004102E000BF83F0004330B54FEA87
:1002500041044FEA430594EA050F08BF90EA020FF4
:100260001FBF54EA000C55EA020C7FEA645C7FEA87
:10027000655C00F0E2804FEA5454D4EB5555B8BFAA
:100280006D420CDD2C4480EA020281EA030382EA1B
:10029000000083EA010180EA020281EA0303362DAD
:1002A00088BF30BD11F0004F4FEA01314FF4801C80
:1002B0004CEA113102D0404261EB410113F0004F92
:1002C0004FEA03334CEA133302D0524263EB430349
:1002D00094EA050F00F0A780A4F10104D5F1200EE7
:1002E0000DDB02FA0EFC22FA05F2801841F1000142
:1002F00003FA0EF2801843FA05F359410EE0A5F116
:1003000020050EF1200E012A03FA0EFC28BF4CF046
:10031000020C43FA05F3C01851EBE37101F00045FC
:1003200007D54FF0000EDCF1000C7EEB00006EEB09
:100330000101B1F5801F1BD3B1F5001F0CD3490893
:100340005FEA30004FEA3C0C04F101044FEA4452EA
:1003500012F5800F80F09A80BCF1004F08BF5FEA71
:10036000500C50F1000041EB045141EA050130BD51
:100370005FEA4C0C404141EB0101013C28BFB1F563
:10038000801FE9D291F0000F04BF01460020B1FAAE
:1003900081F308BF2033A3F10B03B3F120020CDA81
:1003A0000C3208DD02F1140CC2F10C0201FA0CF05F
:1003B00021FA02F10CE002F11402D8BFC2F1200CC4
:1003C00001FA02F120FA0CFCDCBF41EA0C0190407A
:1003D000E41AA2BF01EB0451294330BD6FEA0404C3
:1003E0001F3C1CDA0C340EDC04F11404C4F12002AE
:1003F00020FA04F001FA02F340EA030021FA04F3C0
:1004000045EA030130BDC4F10C04C4F1200220FA16
:1004100002F001FA04F340EA0300294630BD21FA54
:1004200004F0294630BD94F0000F83F4801306BF1A
:1004300081F480110134013D4EE77FEA645C18BF0E
:100440007FEA655C29D094EA050F08BF90EA020FA5
:1004500005D054EA000C04BF1946104630BD91EA9D
:10046000030F1EBF0021002030BD5FEA545C05D1A0
:100470004000494128BF41F0004130BD14F58004DF
:100480003CBF01F5801130BD01F0004545F0FE4153
:1004900041F470014FF0000030BD7FEA645C1ABF88
:1004A000194610467FEA655C1CBF0B46024650EABF
:1004B000013406BF52EA033591EA030F41F40021EB
:1004C00030BD00BF90F0000F04BF0021704730B571
:1004D0004FF4806404F132044FF000054FF0000146
:1004E00050E700BF90F0000F04BF0021704730B507
:1004F0004FF4806404F1320410F0004548BF4042DC
:100500004FF000013EE700BF42004FEAE2014FEA30
:1005100031014FEA02701FBF12F07F4393F07F4F0B
:1005200081F06051704732F07F4208BF704793F00E
:100530007F4F04BF41F40021704730B54FF4607421
:1005400001F0004521F000411CE700BF50EA010224
:1005500008BF704730B54FF000050AE050EA0102CD
:1005600008BF704730B511F0004502D5404261EB3D
:1005700041014FF4806404F132045FEA915C3FF47E
:10058000D8AE4FF003025FEADC0C18BF03325FEA1B
:10059000DC0C18BF033202EBDC02C2F1200300FACC
:1005A00003FC20FA02F001FA03FE40EA0E0021FAF1
:1005B00002F11444BDE600BF70B54FF0FF0C4CF4DF
:1005C000E06C1CEA11541DBF1CEA135594EA0C0F91
:1005D00095EA0C0F00F0DEF82C4481EA030621EACC
:1005E0004C5123EA4C5350EA013518BF52EA033507
:1005F00041F4801143F4801338D0A0FB02CE4FF0B9
:100600000005E1FB02E506F00042E0FB03E54FF0E8
:100610000006E1FB03569CF0000F18BF4EF0010EE0
:10062000A4F1FF04B6F5007F64F5407404D25FEADC
:100630004E0E6D4146EB060642EAC62141EA55518F
:100640004FEAC52040EA5E504FEACE2EB4F1FD0CD1
:1006500088BFBCF5E06F1ED8BEF1004F08BF5FEA4F
:10066000500E50F1000041EB045170BD06F0004601
:1006700046EA010140EA020081EA0301B4EB5C04AE
:10068000C2BFD4EB0C0541EA045170BD41F48011A6
:100690004FF0000E013C00F3AB8014F1360FDEBFCB
:1006A000002001F0004170BDC4F10004203C35DAA7
:1006B0000C341BDC04F11404C4F1200500FA05F32A
:1006C00020FA04F001FA05F240EA020001F00042CB
:1006D00021F0004110EBD37021FA04F642EB060141
:1006E0005EEA430E08BF20EAD37070BDC4F10C046B
:1006F000C4F1200500FA04F320FA05F001FA04F22F
:1007000040EA020001F0004110EBD37041F100011A
:100710005EEA430E08BF20EAD37070BDC4F1200525
:1007200000FA05F24EEA020E20FA04F301FA05F28D
:1007300043EA020321FA04F001F0004121FA04F235
:1007400020EA020000EBD3705EEA430E08BF20EA05
:10075000D37070BD94F0000F0FD101F0004640003F
:1007600041EB010111F4801F08BF013CF7D041EAC1
:10077000060195F0000F18BF704703F000465200C5
:1007800043EB030313F4801F08BF013DF7D043EA96
:100790000603704794EA0C0F0CEA135518BF95EA4C
:1007A0000C0F0CD050EA410618BF52EA4306D1D1D3
:1007B00081EA030101F000414FF0000070BD50EAF2
:1007C000410606BF1046194652EA430619D094EA7C
:1007D0000C0F02D150EA013613D195EA0C0F05D166
:1007E00052EA03361CBF104619460AD181EA0301BA
:1007F00001F0004141F0FE4141F470014FF0000072
:1008000070BD41F0FE4141F4780170BD70B54FF00C
:10081000FF0C4CF4E06C1CEA11541DBF1CEA13558C
:1008200094EA0C0F95EA0C0F00F0A7F8A4EB05046E
:1008300081EA030E52EA03354FEA013100F0888065
:100840004FEA03334FF0805545EA131343EA12632E
:100850004FEA022245EA111545EA10654FEA0026E3
:100860000EF000419D4208BF964244F1FD0404F59C
:10087000407402D25B084FEA3202B61A65EB0305F8
:100880005B084FEA32024FF480104FF4002CB6EBB5
:10089000020E75EB030E22BFB61A754640EA0C0035
:1008A0005B084FEA3202B6EB020E75EB030E22BF75
:1008B000B61A754640EA5C005B084FEA3202B6EBB6
:1008C000020E75EB030E22BFB61A754640EA9C0075
:1008D0005B084FEA3202B6EB020E75EB030E22BF45
:1008E000B61A754640EADC0055EA060E18D04FEA03
:1008F000051545EA16754FEA06164FEAC30343EAA3
:1009000052734FEAC2025FEA1C1CC0D111F4801F6F
:100910000BD141EA00014FF000004FF0004CB6E768
:1009200011F4801F04BF01430020B4F1FD0C88BF07
:10093000BCF5E06F3FF6AFAEB5EB030C04BFB6EB12
:10094000020C5FEA500C50F1000041EB045170BD05
:100950000EF0004E4EEA113114EB5C04C2BFD4EB32
:100960000C0541EA045170BD41F480114FF0000EB6
:10097000013C90E645EA060E8DE60CEA135594EA32
:100980000C0F08BF95EA0C0F3FF43BAF94EA0C0F35
:100990000AD150EA01347FF434AF95EA0C0F7FF4AA
:1009A00025AF104619462CE795EA0C0F06D152EAFE
:1009B00003353FF4FDAE1046194622E750EA4106E2
:1009C00018BF52EA43067FF4C5AE50EA41047FF4F3
:1009D0000DAF52EA43057FF4EBAE12E74FF0FF3C58
:1009E00006E000BF4FF0010C02E000BF4FF0010C29
:1009F0004DF804CD4FEA410C7FEA6C5C4FEA430CA2
:100A000018BF7FEA6C5C1BD001B050EA410C0CBFF0
:100A100052EA430C91EA030F02BF90EA020F002052
:100A2000704710F1000F91EA030F58BF994208BFB9
:100A300090422CBFD8176FEAE37040F00100704776
:100A40004FEA410C7FEA6C5C02D150EA013C07D1CD
:100A50004FEA430C7FEA6C5CD6D152EA033CD3D018
:100A60005DF8040B704700BF8446104662468C4612
:100A70001946634600E000BF01B5FFF7B7FF002845
:100A800048BF10F1000F01BD4DF808EDFFF7F4FF6E
:100A90000CBF012000205DF808FB00BF4DF808EDF9
:100AA000FFF7EAFF34BF012000205DF808FB00BF1C
:100AB0004DF808EDFFF7E0FF94BF012000205DF83E
:100AC00008FB00BF4DF808EDFFF7CEFF94BF0120F3
:100AD00000205DF808FB00BF4DF808EDFFF7C4FFEC
:100AE00034BF012000205DF808FB00BF4FEA410C35
:100AF0007FEA6C5C02D150EA013C0AD14FEA430C18
:100B00007FEA6C5C02D152EA033C02D14FF0000054
:100B100070474FF0010070474FEA4102B2F1E043E5
:100B200024BFB3F5001CDCF1FE5C0DD901F0004CD4
:100B30004FEAC0024CEA5070B2F1004F40EB830024
:100B400008BF20F00100704711F0804F21D113F150
:100B50003872BCBF01F00040704741F480114FEA89
:100B60005252C2F11802C2F1200C10FA0CF320FA12
:100B700002F018BF40F001004FEAC1234FEAD3232F
:100B800003FA0CFC40EA0C0023FA02F34FEA430399
:100B9000CCE77FEA625307D150EA01331EBF4FF022
:100BA000FE4040F44000704701F0004040F0FE403D
:100BB00040F40000704700BF53B94AB9002908BF8C
:100BC00000281CBF4FF0FF314FF0FF3000F00CB891
:100BD000ADF1080C6DE904CE0BF0E8FDDDF804E0A2
:100BE000DDE9022304B07047704700BF10B5054C23
:100BF000237833B9044B13B10448AFF300800123C9
:100C0000237010BD2002002000000000ACCA0008C4
:100C100008B5034B1BB103490348AFF3008008BD7F
:100C20000000000024020020ACCA00081FB500210B
:100C30002D4802F0D1FC642009F058FB2B4802F04B
:100C4000EAF92A4802F010FA00B9FEE7022116205C
:100C500009F06CFA264802F08BFF40230C22009327
:100C600001210023224802F077FF224801F031FDE4
:100C70002048032101F01CFD1E48002101F0E4F989
:100C80001C484FF6FF7101F0FBF90A221146194882
:100C900001F0EAF91748012101F0E9F91649154870
:100CA00009F052F94FF47A6009F020FB0DF10E03C0
:100CB0000E4803AA0DF10A0102F076F9BDF90A30D7
:100CC00007EE903A0D4BF8EEE77AC3ED007ABDF9E6
:100CD0000C3007EE903A0A4BF8EEE77AC3ED007A53
:100CE00005B05DF804FB00BFE002002044020020D4
:100CF0000C00002074020020C8CA00084002002036
:100D00003C0200200000000070B52DED0C8B0BEEB6
:100D1000100A84B010EE900AF0EE40AA0CEE902A71
:100D20000BEE901AFFF7F0FB5CA3D3E90023FFF76B
:100D300043FC574B0022FFF769FDFFF7EDFEF8EE8D
:100D4000ECCA0AEE100A6FF03B05002D08BF0A2519
:100D500007EE905AF8EEE78A78EEEA8AF0EEE87A43
:100D6000F4EEE7CAF1EE10FA00F18A80142295FB46
:100D7000F2F302FB1353002B0CBF14460A24634208
:100D80000DEE103AB0EE4A0A0AF09CF9B8EECB8AA2
:100D9000B8EECDDAB0EE489AADEE009A4FF6FF7697
:100DA000B0EE40CAB0EE4A0A0AF0CCF907EE904A1B
:100DB000B0EE497AB8EEEB9AF8EEE75AF0EE497ADF
:100DC000E5EE807A33480196FDEEE88AF0EE496A56
:100DD000F8EEE88AB0EE486AEDEE006A0534A5EE5A
:100DE0008C6AE8EE8C7AA8EEC07AA8EEC06AE8EECB
:100DF0008C6AFDEEE77ABDEEC66A17EE903AFDEE1C
:100E0000E66ABDEEC77A1BB216EE902A17EE101AEC
:100E1000009316EE103A12B21BB209B2F0EE409AED
:100E200001F0E8F91B48012101F021F91948314688
:100E300001F026F918492A4602A809F0F5FC07EE48
:100E4000904AF8EEE77AF1EE68DAA7EEA99A11482F
:100E5000A7EE8C8AA8EE8C9AA9EEAD8ABDEEC99A4F
:100E6000BDEEC88A19EE103ADA1E18EE103A991F34
:100E700009B212B201F0F8F8064802A909F064F8C4
:100E80000A35462D7FF461AF04B0BDEC0C8B70BD0C
:100E90000080664074020020E5CA0008182D445402
:100EA000FB21094000000000694A6A4BD2ED007A3C
:100EB0002DE9F04170EE677A2DED048BF0EEE77AC4
:100EC000B7EE007AF4EEC77AF1EE10FA82B0F0EEE7
:100ED000408AB0EE609A0BD5D3ED007A70EEE77AD7
:100EE000F0EEE77AF4EEC77AF1EE10FA00F1A7809F
:100EF000C2ED008A83ED009A0022F023CDE9003292
:100F000011464FF6FF745448A02301F02AFA5248C4
:100F1000009446237822502101F0C7F84623782216
:100F20004D480094502101F0C0F819EE100AFFF767
:100F3000EBFA45A3D3E90023FFF73EFB474B002222
:100F4000FFF764FCFFF7E8FD09EE900AB0EE690ACE
:100F50000AF0F8F86FF04504B0EE408A41F2243808
:100F600004F1780604FB04F76FF04505B6B205FB03
:100F70000573434520DCB0EE690A0AF0A3F807EEDA
:100F8000904AF8EEE77A07EE105A77EEE87AB8EE74
:100F9000C77A67EE807A05F15001E7EE087A2E48AD
:100FA0003246F5EEC07AF1EE10FACCBF4FF4FC6396
:100FB0001F2389B201F06AF80135472DD7D10134DA
:100FC000472CCDD1DFED267A28EE278AFDEEE87A90
:100FD000BDEEC88A4FF6FF7418EE103A99B217EEBC
:100FE000903A98B200F17802C0F1780001F1500314
:100FF00000B2C1F150011BB20194009012B2164828
:1010000009B201F0F7F8462278215020F0EE490AA3
:10101000B0EE680AFFF778FE4FF6E0747822CDE96B
:1010200000240D485A23462101F0E4F8822300935E
:101030005023094801946E22194601F0DBF802B0F2
:10104000BDEC048BBDE8F081182D4454FB21094010
:101050000800002004000020740200200080664088
:1010600000008C42000000005D4B2DE9F041D3ED03
:10107000007A70EE677A2DED048BF0EEE77AB0EE31
:10108000007AF4EEC77AF1EE10FA82B0F0EE408A00
:1010900000F19B8083ED000AF0260022A023CDE919
:1010A000006219464FF6FF774E48DFED4F9A9FEDED
:1010B0004F8A01F056F93C2378223146494800977F
:1010C00000F0F3FF18EE900AFFF71EFA42A3D3E9EF
:1010D0000023FFF771FA464B0022FFF797FBFFF75B
:1010E0001BFD09EE100AB0EE490A0AF02BF8A0EE3B
:1010F000298A4FF47848B0EE490A09F0E3FFDFEDA2
:101100003D7A3848E0EE697A31467822BDEEC88AE9
:10111000FDEEE77A18EE103A1CB217EE903A1DB2C7
:10112000CDE90058234601F065F804232A462146FC
:101130002C48CDF8008001F086F83946294800F0A7
:101140009FFF2848012100F092FF32222548EC2120
:1011500000F08AFF2849234808F0F6FE742221484F
:101160004FF4977100F080FF24491E4808F0ECFE10
:10117000B6221C48EC2100F077FF2149194808F0FD
:10118000E3FE74221748AC2100F06EFF1D4915489C
:1011900008F0DAFEC4221348E12100F065FF11488F
:1011A0004FF6E07100F06CFFFDEEE87A0A2217EED0
:1011B000901A0C4808F024FF0A48B02102B0BDEC98
:1011C000048BBDE8F04108F0C3BE02B0BDEC048B57
:1011D000BDE8F081AFF30080182D4454FB21094095
:1011E00000000020740200200000704200007043E4
:1011F000008066400000F042E8CA0008EACA000821
:10120000ECCA0008EECA000870B52DED048B16205C
:1012100086B009F02DF8704D704E044640BB704802
:1012200005AB04AA03A901F0BFFEBDF90C306D485F
:1012300007EE903ABDF91030F8EEE77A2246C5ED98
:10124000007A07EE903AF8EEE77A4FF4FC61C6EDCB
:10125000007A00F018FF6348DC220A2100F004FF46
:101260006149604808F070FE4FF4FA7009F03EF8EA
:1012700002AA0DF10A030DF10601594801F094FE8E
:10128000BDF9063095ED007A07EE903AF8EEE77A70
:1012900077EEC77A96ED007ABDF90A60FDEEE77A3F
:1012A00006FB06F017EE903A1DB2BDF90830ADF816
:1012B000065007EE903AF8EEE77A77EEC77AFDEE41
:1012C000E77A17EE903A1CB204FB0400ADF8084030
:1012D000FFF708F941EC100B09F0BEFE2846B0EE0E
:1012E000408AF0EE608AFFF7FDF8B0EE481AF0EEA3
:1012F000681A41EC100B09F0ADFE3C4B51EC100BA1
:101300000022FFF759F932A3D3E90023FFF77EFA51
:10131000FFF702FC08EE900A3046FFF7E3F841ECD5
:10132000190B2046FFF7DEF8B0EE491AF0EE691A05
:1013300041EC100B09F08EFE2C4B51EC100B0022EF
:10134000FFF73AF922A3D3E90023FFF75FFAFFF78B
:10135000E3FB05AB04AA03A909EE100A244802F036
:1013600015FCDDED037AF8EEE70ADDED047AB8EE60
:10137000E70A09F0A5FE10EE100AFFF7C5F81B4BAF
:101380000022FFF719F912A3D3E90023FFF73EFA71
:10139000FFF7C2FB08EE100AB5EEC08AF1EE10FAB4
:1013A00044BFDFED147A38EE278AF0EE490AB0EE3A
:1013B000680AFFF779FDB0EE480AFFF755FEC8202E
:1013C00008F094FF06B0BDEC048B70BDAFF3008055
:1013D000182D4454FB210940400200203C0200200B
:1013E0004402002074020020F0CA00080080664019
:1013F0000C0000200000B44337B5114C01212046F9
:1014000000F0D6FD0F4A104B5360104B1360104B89
:10141000136149F2413353610025F023C2E90254BC
:10142000214600930B484FF4A07300F0DFFD0A48FB
:101430002A46682103B0BDE8304001F05BBD00BF23
:10144000C4020020AC02002000CB00085CCC0008E5
:1014500007CB0008740200204402002070470020DF
:101460007047002070470020704700207047002020
:101470007047002070470020704700207047002010
:101480007047002070472DE9F3410446C068BDF85D
:1014900020801F4603685B6D0D46164698472368FB
:1014A000CDF80080D3F8148020463B4632462946CA
:1014B000C047E06803689B6D02B0BDE8F041184783
:1014C0002DE9F3410446C0681E4603685B6D0F4674
:1014D0001546984723680095D3F814802A463B4662
:1014E00039462046C047E06803680122DB6C31467C
:1014F0009847E06803689B6D02B0BDE8F04118476B
:101500002DE9F04F0646C06887B09B460368BDF9D9
:1015100040505B6DBDF844A0904689469847A5EBC6
:101520000801ABEB09020029B8BF4942002AB8BF45
:10153000524291422F46444658464B4605DC2846C7
:1015400043465D46C846BB46A146A84508DC1C4646
:10155000034620465C46CB46A1462C464546A0465F
:101560001FFA88F41B1A671B83EAE370A0EBE37091
:101570000294CB45B4BF01234FF0FF33BCB291427C
:101580000394049047F34E07059341DC29464FF03E
:10159000000945455BDDB9F1000F51D030681FFAF5
:1015A0008BF219FA81F30092013B44699BB23046F9
:1015B00089B2A047F06803684A46DB6C51469847F9
:1015C000F06803689B6D98473AE0049BFF1ABBB232
:1015D0003FB201340135002F24B22DB21ADA03993B
:1015E0000B441FB20299336800911FFA8BFB5946D6
:1015F000D3F8149092B25B463046C847F06803684F
:101600002246DB6C51469847059B9B440FFA8BFBA7
:101610002A4600244545D8DD94B114FA82F10139F7
:10162000306889B21FFA8BF300914569194692B26E
:101630003046A847F06803682246DB6C514698475D
:10164000F06803689B6D07B0BDE8F04F1847049B36
:10165000FF1ABBB23FB209F101090135002F0FFAA1
:1016600089F92DB295DA039A13441FFA8BF41FB24D
:1016700033680094D3F814B0029B224689B23046F6
:10168000D847F06803684A46DB6C51469847059B8B
:101690001C440FFA84FB79E72DE9F04F0446C0683B
:1016A0009846036885B05B6DBDF83C90BDF938A0E5
:1016B0000D461646984708F1FF331FFA85FB13FACB
:1016C00085F5ABB2B6B20393236800965F69039BBE
:1016D000324659462046B847E06803680AF1FF37AA
:1016E00042464946DB6C37449847BFB223680097AF
:1016F0005B693A461D465946039B2046A847E06869
:10170000036842464946DB6C984723680097D3F844
:10171000148032465B4659462046C047E06803685D
:1017200052464946DB6C9847236800975F69039BE4
:10173000324619462046B847E06803685246DB6CDB
:1017400049469847E06803689B6D05B0BDE8F04FD7
:1017500018472DE9F3470446C068BDF92860BDF875
:101760002C701D4603685B6D914688469847701E35
:1017700010FA89F080B2009022686B1E13FA88F389
:10178000D2F814A01FFA88F11FFA89F220469BB202
:10179000D047E068036805FB06F2DB6C39469847E2
:1017A000E06803689B6D02B0BDE8F0471847C06869
:1017B00003682031DB6AC9B21847036810B45C685B
:1017C0000022A44603235DF8044BD3216047F8B5FB
:1017D000042B0546C06828BF04231C4603685B6DC4
:1017E0000E4617469847E86803683146DB6B984712
:1017F000E86803681B6A98470026E868B7420368F0
:1018000007D10026E86803683CB99B6D98473046CD
:10181000F8BD1B6A98470136EFE71B6A9847360206
:10182000013C0643E4B2EDE71FB50DF10E03046879
:10183000019301230093E468A047BDF80E0004B0B3
:1018400010BD00002DE9F74FBDF830605F1E013E6E
:101850000F441644044688461546BFB2B6B2B54298
:1018600042D903B0BDE8F08FE0680268526D90473E
:10187000226800954B46D2F814B049462A462046C5
:10188000D847E06802682E21D26B9047E068026872
:10189000126A9047E0680268126A90478246E068E0
:1018A0000168096A88478346E0680168096A8847D1
:1018B0000E4B4FEACA0203EA0B2B02F4FC624BEA1E
:1018C000020B0D9B4BEAD00BE06823F802BB0268C9
:1018D0000D93926D904709F101031FFA83F9B94501
:1018E000C2D90135ADB2BAE7C146F8E700F8FFFF4B
:1018F0002DE9F0410446C068BDF818801E46036813
:101900000F46DB6B2A2115469847E0680368390AC1
:101910005B6C9847E0680368F9B25B6C9847E068D5
:101920000368310A5B6C9847E0680368F1B25B6C4E
:101930009847E06803682B21DB6B9847E0680368F1
:10194000290A5B6C9847E0680368E9B25B6C9847CA
:10195000E06803684FEA18215B6C9847E068036809
:101960005FFA88F15B6C9847E0680368BDE8F04176
:10197000DB6B2C21184770B50546C06803685B6DAA
:101980000C469847E86803683621DB6B9847E8689F
:1019900004F00301036802295B6C0CD003290CD00E
:1019A000012914BF482128219847E8680368BDE849
:1019B00070409B6D18478821F6E7E821F4E710B5E1
:1019C0000446C06803685B6D9847E0680368EF21D0
:1019D000DB6B9847E068036803215B6C9847E0681D
:1019E000036880215B6C9847E068036802215B6CA8
:1019F0009847E0680368CF21DB6B9847E06803688D
:101A000000215B6C9847E0680368C1215B6C9847D4
:101A1000E068036830215B6C9847E0680368ED215B
:101A2000DB6B9847E068036864215B6C9847E0686B
:101A3000036803215B6C9847E068036812215B6CC4
:101A40009847E068036881215B6C9847E068036809
:101A5000E821DB6B9847E068036885215B6C984759
:101A6000E068036800215B6C9847E06803687821B0
:101A70005B6C9847E0680368CB21DB6B9847E068B4
:101A8000036839215B6C9847E06803682C215B6C24
:101A90009847E068036800215B6C9847E06803683A
:101AA00034215B6C9847E068036802215B6C9847BF
:101AB000E0680368F721DB6B9847E0680368202142
:101AC0005B6C9847E0680368EA21DB6B9847E06845
:101AD000036800215B6C9847E068036800215B6C39
:101AE0009847E0680368C021DB6B9847E0680368AB
:101AF00023215B6C9847E0680368C121DB6B984742
:101B0000E068036810215B6C9847E0680368C521B2
:101B1000DB6B9847E06803683E215B6C9847E068A0
:101B2000036828215B6C9847E0680368C721DB6B7A
:101B30009847E068036886215B6C9847E068036813
:101B40003621DB6B9847E068036848215B6C984757
:101B5000E06803683A21DB6B9847E0680368552129
:101B60005B6C9847E0680368B121DB6B9847E068DD
:101B7000036800215B6C9847E068036818215B6C80
:101B80009847E0680368B621DB6B9847E068036814
:101B900008215B6C9847E068036882215B6C98477A
:101BA000E068036827215B6C9847E0680368F221CE
:101BB000DB6B9847E068036800215B6C9847E0683E
:101BC00003682621DB6B9847E068036801215B6CA2
:101BD0009847E0680368E021DB6B9847E06803689A
:101BE0000F215B6C9847E068036831215B6C984774
:101BF000E06803682B215B6C9847E06803680C2160
:101C00005B6C9847E06803680E215B6C9847E0685E
:101C1000036808215B6C9847E06803684E215B6CA1
:101C20009847E0680368F1215B6C9847E0680368B7
:101C300037215B6C9847E068036807215B6C984725
:101C4000E068036810215B6C9847E0680368032133
:101C50005B6C9847E06803680E215B6C9847E0680E
:101C6000036809215B6C9847E068036800215B6C9E
:101C70009847E0680368E121DB6B9847E0680368F8
:101C800000215B6C9847E06803680E215B6C984705
:101C9000E068036814215B6C9847E06803680321DF
:101CA0005B6C9847E068036811215B6C9847E068BB
:101CB000036807215B6C9847E068036831215B6C1F
:101CC0009847E0680368C1215B6C9847E068036847
:101CD00048215B6C9847E068036808215B6C984773
:101CE000E06803680F215B6C9847E06803680C218B
:101CF0005B6C9847E068036831215B6C9847E0684B
:101D0000036836215B6C9847E06803680F215B6CC1
:101D10009847E06803681121DB6B9847E068036827
:101D20009B6D9847782008F0E1FAE06803685B6DE6
:101D30009847E06803682921DB6B9847E0680368EF
:101D4000BDE810409B6D184710B5036804465B6BF7
:101D50009847236820469B69BDE81040184710B596
:101D6000036804469B6B0122984723682046DB6981
:101D7000BDE8104018477047704770474FF0D84390
:101D800093F8800070474FF0D843B3F88000704755
:101D90004FF0D843B3F8800070474FF0D843197024
:101DA00070474FF0D843198070474FF0D84383F8FD
:101DB000801070474FF0D84302B97047A3F88010E5
:101DC000013AF9E70A444FF0D843914200D17047F5
:101DD00011F8010B83F88000F7E770B5036804463B
:101DE0000D46DB6C0122090A98472368E9B22046B8
:101DF000DB6CBDE87040012218477047037EB0F9E4
:101E000016005B1A5942594108F0FAB937B55F4AD2
:101E1000136B43F078031363136B01935C4B196AE4
:101E200001F0FF2141F0CC111962596A044659486A
:101E300008405949014359621D68584958480D40A6
:101E4000284318609D6857480D402843986058689B
:101E500008405860D8680140D960D3F8201421F0B8
:101E6000704141F04041C3F82014D3F824144FF0DE
:101E7000CC31C3F82414D3F800044B49C0F30D004F
:101E80000143C3F80014D3F808044849C0F30D0017
:101E90000143C3F80814D3F80414C1F30D01C3F8C7
:101EA0000414D3F80C14C1F30D01C3F80C14D3F8C7
:101EB0002018C3F82018D3F82418B4F9160021F418
:101EC000702141F44021C3F82418D3F8001821F000
:101ED000407141F00071C3F80018D3F8081821F0E0
:101EE000407141F08071C3F80818D3F8041821F04C
:101EF0004071C3F80418D3F80C1821F04071C3F8EE
:101F00000C18D3F8201CC3F8201CD3F8241C21F48F
:101F1000702141F44021C3F8241CD3F8001C21F0A7
:101F2000407141F00071C3F8001CD3F8081C21F087
:101F3000407141F08071C3F8081CD3F8041C21F0F3
:101F40004071C3F8041CD3F80C1C21F04071C3F895
:101F50000C1C03F50063936B43F001039363136B55
:101F60000193019B4FF0204341F2D9029A6141F65F
:101F70000F62DA61002108F043F9B4F9160001217B
:101F800003B0BDE8304008F0D1B800BF00380240CF
:101F9000000C024000F0FF00CC0C00CCF0F0C00FB1
:101FA0000A0A2AA0050515500080AAAA0040555526
:101FB000074A4260074ADFF828C00260064A82608A
:101FC0004FF41C12C0E903C2044A42610176704713
:101FD00016CB0008C4CC00081BCB00082600C000AC
:101FE0002D0049000020704770470000F0B5BDF893
:101FF0001460C381B342C0E90C1294BF00220122D5
:10200000B34242721A4628BF32464281B3421A4650
:102010004FF0010380F8293040F2011303624FF6BC
:10202000FF734FF00005074F836138BF32464FF40E
:10203000EB73456007608281068245824561838338
:10204000C562F0BD30CD000813B50346406B026891
:102050000191B3F910100091146BB3F90E30002206
:102060001146A04702B010BD41828282704701290B
:1020700038BF0121072928BF072180F821107047A8
:1020800041830183704701834283704730B4C5891F
:102090008D4208D9058A954205D9406B0468646A67
:1020A000A44630BC604730BC70472DE9F04F044671
:1020B00087B0406BBDF84050D0F800C00095DCF808
:1020C00034808B4617461E46C047804658BB730077
:1020D0001FFA86F903937310BFB25B4219FA8BF1B2
:1020E0001FFA8BFA02933A462B4689B22046FFF735
:1020F000CDFFAAEB09012B463A4689B22046FFF7ED
:10210000C5FFA7EB09022B4692B251462046FFF7C6
:10211000BDFF09EB07022B4692B251462046FFF75E
:10212000B5FF464502DC07B0BDE8F08F029B002BEF
:1021300008DB039B023B0393DDE90232013E9B1A5D
:10214000029336B2029B03EB4803033308F1010804
:1021500002931AFA88F31FFA83FB17FA86F292B2F7
:1021600059462B4620460492FFF790FF1FFA88F34A
:10217000AAEB03011FFA86F989B2049A05912B464E
:102180002046FFF783FFA7EB090292B2059904925C
:102190002B462046FFF77AFF5946049A2B462046E5
:1021A000FFF774FF0AEB090B1FFA88F31FFA8BFB8A
:1021B000FA1892B22B4659462046AAEB0909049216
:1021C000FFF764FF1FFA89F1049A04912B46204619
:1021D000FFF75CFF1FFA88F3A7EB03091FFA89F9E1
:1021E00004992B464A462046FFF750FF2B464A46A5
:1021F000594693E770B4406BBDF90C50BDF81060C0
:102200000468CDE90356A46AA44670BC604773B560
:10221000C489A14215DA058AAA4212DA9E18B5428B
:1022200094B2B8BF2D1B406BBDF81860B8BF2BB27D
:10223000013C1C440568019624B20094AC6A0B462C
:10224000A04702B070BD2DE9F04F804687B0406BCB
:10225000BDF840900468CDF80090A46B0F469246FC
:102260001D46A0470446A8B91FFA8AF30393039AB0
:10227000CDF800904FEA450B0BF10103521B394694
:102280001BB212B24046FFF7C2FF6E107642BFB2D9
:10229000A54202DC07B0BDE8F08F002EA2BF05F119
:1022A000FF35ABF1020B2DB2039BCDF80090A8BF18
:1022B000A6EB0B061FFA85FAA3EB0A0206EB44060F
:1022C0004FEA4A03013417FA84F1013312B21BB208
:1022D000404609B2CDE90423FFF799FFA3B2F91AEA
:1022E0004046DDE90423CDF8009009B2FFF78FFFE7
:1022F000039BCDF80090A2B29A1AA3B25B0007EB41
:102300000A01013312B21BB2404609B2CDE90423DF
:10231000FFF77DFFA7EB0A01DDE90423CDF800906C
:1023200009B240460336FFF772FFB1E773B5C589BE
:10233000A94214DA048AA24211DA5E18B5428CB2BC
:10234000B8BF2D1B406BB8BF2BB2BDF81850013C75
:1023500023440468CDE900251BB2A46AA04702B05B
:1023600070BDF0B4C589BDF91060BDF81470A94204
:1023700017DA048AA24214DA9BB196B103EB010C7E
:102380006545BCBF6D1A2BB2B518AC42406BBCBFE3
:10239000A41A26B20468CDE90467246BA446F0BCF5
:1023A0006047F0BC704700002DE9F04F91B09846AF
:1023B000BDF868300393B0F90E30BDF86C709DF82D
:1023C000704004928B4205460E464FF0000A40F3DF
:1023D0009F80B0F91030934240F39A80062314FB9B
:1023E0000313534540F394804FF0080914FB09236D
:1023F000534540F38D80C36A002B40F0B080012C20
:102400004DD1039BBB424AD0006B03685B6D98477C
:10241000BDF81020686B02EB0903B1B29BB20668ED
:10242000009301F1050C76691FFA8CF3B04708EBB5
:1024300088089E4B53F808000E9008EB03020EAE7E
:1024400013793371039B7FBA93FA93FA1FFA8AFACE
:10245000BFB24FF00008286B16F80820036814423A
:1024600014BF51463946DB6C012208F10108984738
:10247000B8F1050FEFD1286B03680122DB6C3946F8
:1024800009F1FF399847640019F0FF09E4B2E0D17F
:10249000286B03689B6D11B0BDE8F04F184708EB3F
:1024A000880308930623079323B24FF0000805938F
:1024B000B8F1050F1DBF089B7C4A43444FF000094B
:1024C00018BF12F80390012C25D108EB060B4FF032
:1024D000000A1FFA8BFB19F0010F08D0049B0AEBCE
:1024E000030292B2039B59462846FFF7CFFD0AF13B
:1024F000010ABAF1080F4FEA5909ECD1079B013BD9
:1025000008F1010813F0FF034FFA88F80793CFD1C1
:1025100011B0BDE8F08F08FB04631BB2BDF810A03A
:1025200006934FF0080B19F0010F039B13D0019392
:10253000059B069900930FFA8AF22846FFF711FFD0
:102540000BF1FF3BA2441BF0FF0B4FEA59091FFAA6
:102550008AFAE8D1D2E7BB42F2D00197E8E71A7ACB
:10256000597A414538BF9046A8EB020859681B6864
:102570000A935FFA88F801EBC802022C937805935E
:10258000D3780B9392F90530069392F906300793AE
:10259000069B31F838B038BF53460893079B38BFC5
:1025A00053460993059B1FFA86F913FA86F6069B94
:1025B000F318D04657460D930B9B9F42A8D2099A19
:1025C0003A44002612FB04F233460C9213E0B8F1B1
:1025D000000F08D10A990BF1010211F80BA04FF07E
:1025E00080081FFA82FB1AEA080F1DD001339BB244
:1025F0004FEA580801360599F2B28A42E7D383B10F
:10260000012CBDF8102039D10799039800900A4495
:102610000D993A44C91A12B21BB209B22846FFF703
:1026200085FE0137FFB2C7E793B1012CBDF810203A
:1026300010D10799039800900A44069949443144FF
:10264000C91A3A441BB212B209B22846FFF76EFE0D
:102650000023CDE70C990A4408993144C91A14FBA8
:1026600003F011FB04F1039B4944CDE9004312B28E
:1026700003B209B22846FFF774FEE9E70999059EFF
:10268000394401FB042208993144C91A14FB03F0B0
:1026900011FB04F1039B4944CDE9004312B203B29C
:1026A00009B22846FFF75DFEBBE700BF78020108CC
:1026B00038B50446406B03689B690D4698476389AB
:1026C000A289E9075EBF194613460A46E2812382C2
:1026D00038BD10B50446006B03685B689847606BB3
:1026E00003681B699847617A2046FFF7E1FF206B7A
:1026F0000368BDE810401B6E012118472DE9F04F1B
:102700008BB01D46149B0492012B90F821200446A7
:102710000E4629D10292438B0193038B00932AB278
:10272000CBB2BDF91010FFF73FFEE26A3AB994F858
:10273000210000EB400040000BB0BDE8F08F517A63
:10274000137AB1420ED39E42C0F031825268F31A1E
:10275000DBB202EBC303187994F8213010FB03F0CD
:1027600000B2E9E71E46F1E7022BA1F120060DD1E8
:10277000754B13F806B0049B12FB0B31B0F90E3009
:10278000994258DB12FB0BF210B2D5E7D91E05298E
:1027900000F296810C214B436C49C85803EB010CA5
:1027A000043150F82670CB589CF8088013F806B016
:1027B000238B618B012A1BFB08FA1FFA8BF640F072
:1027C00083818B4240F0C78194F82130206B13FB4A
:1027D00003F2013BDBB206930368D2B25B6D099250
:1027E00098474FF00009D14580F2658117F8013B09
:1027F0001A0640F1AC8199FBFBF803F07F0301332B
:102800000893069B0BFB1896002B00F06F8194F841
:102810002130049A06FB0322059208FB0358089B0B
:102820000793079B013BDBB2FF2B079340F06381CB
:10283000089B9944D7E7464B018B53F826900BF140
:102840000603DB100593438B994202D0012A00F066
:10285000028110230693BDF910300793618B238BFF
:102860008B4209D012FB0BF3CDE900211BB2079973
:102870002AB22046FFF775FDBDF810704FF0000A30
:10288000059B94F821209A450AD19944069B013B67
:1028900015440693E2D194F8210010FB0BF05FE79A
:1028A0001AF80960002E49D0012A73B252D1002BC8
:1028B00005DA238BAAB239462046FFF7E7FB7006FC
:1028C00006D5791C238BAAB289B22046FFF7DEFB1E
:1028D000B10606D5B91C238BAAB289B22046FFF7F0
:1028E000D5FBF20606D5F91C238BAAB289B2204685
:1028F000FFF7CCFB330706D5391D238BAAB289B26B
:102900002046FFF7C3FB700706D5791D238BAAB2BB
:1029100089B22046FFF7BAFBB10706D5B91D238B54
:10292000AAB289B22046FFF7B1FBF20706D5F91D1E
:10293000238BAAB289B22046FFF7A8FB08370AF119
:10294000010ABFB29CE700BF1802010840CD000891
:1029500058FA000808210846049912FB0AF8002BCF
:1029600018FB001809DA13B2228B0FFA88F1CDE9AF
:10297000003220462AB2FFF7F4FC73060BD594F818
:102980002110228B0B464144CDE9003209B22AB214
:102990002046FFF7E6FCB0060CD594F82110228BF8
:1029A0000B4608EB4101CDE9003209B22AB22046BC
:1029B000FFF7D7FCF1060DD594F82110228B0B46BA
:1029C00001EB41014144CDE9003209B22AB220466F
:1029D000FFF7C7FC32070CD594F82110228B0B4669
:1029E00008EB8101CDE9003209B22AB22046FFF797
:1029F000B8FC73070DD594F82110228B0B4601EB20
:102A000081014144CDE9003209B22AB22046FFF7E4
:102A1000A8FCB0070ED594F82110228B0B4601EBD1
:102A2000410108EB4101CDE9003209B22AB220464A
:102A3000FFF797FCF10781D594F82110228B0B4604
:102A4000C1EBC1014144CDE9003209B22AB22046AE
:102A5000FFF787FC72E7006B03685B6D9847BDF872
:102A60001010606BAAB2059D4B1E02F10F0603EB1E
:102A7000C503B6B2056800966E699BB2B0471026D2
:102A8000002512E015F8098008274FF0800A206B16
:102A9000036818EA0A0F14BF217EA17E5B6C984779
:102AA000013F4FEA5A0AF2D10135059B9D42E9D117
:102AB000013EA944E4D1206B03689B6D9847EAE688
:102AC0000027B846BB4673E68B423FF47DAE12FB4F
:102AD00006F318FB02F212B201910092BDF9101038
:102AE0001BB22AB22046FFF73CFC6DE6049BF318AC
:102AF0000593A84493E6DDE9052313FA82F3069AC9
:102B0000606B12FA88F2016892B200924A69BDF8CD
:102B1000141016469BB21FFA88F2B047206B069A33
:102B20000368218BDB6C82B1099A984794F82130B5
:102B3000059A1A440592049A059913FB0B228A42BE
:102B4000DEBF9844049B05936BE60122EDE7013359
:102B500059FA83F947E6206B03685B6D9847BDF827
:102B60001010606BAAB2551E4B1E45443344ADB2E3
:102B70000668009575699BB2A847206BBAF1000FF3
:102B800003689ADD97F900103A78DB6C0029B5BF2D
:102B900002F07F0201320132D2B2B5BF218B618BCC
:102BA000AAEB020AAAEB020A01379847E5E70020E0
:102BB000C2E500BFF0B50D29044685B0084644D0F3
:102BC000E36A0A2908BF2021002B41D194F8205044
:102BD000022D11D1414B5A5C063202F4FC721023D3
:102BE00094F82170A68A0A2807FB03F317D133440F
:102BF000A3820023638228E0EA1E052A09D80C2656
:102C0000374B6E439A5933440A441B7912F8202CEF
:102C1000E6E7012D12BF1A4608230622E0E794F8E2
:102C2000290048B1608A12FB0702E0898242A1BFF5
:102C30009B19A382002363820095A38A628A20469F
:102C4000FFF75CFD638A18446082012005B0F0BD87
:102C50000A2809D1002262829A7A94F82110A38A64
:102C600001FB0233A382F0E7587A1A7A884233D301
:102C70009142EAD35D688A1AD2B205EBC205A87800
:102C800018B3EA780AB394F8296094F821207EB149
:102C900095F905600644608A02FB0600E689B042A9
:102CA00006DB00266682A08A9B7A03FB0203A382CE
:102CB0000292638B0193238B0093B4F914200B468B
:102CC0002046B4F91210FFF76FFB297994F8212000
:102CD000638A01FB02338DE71146CBE7F801010857
:102CE00044CD00082DE9F74F0D9C01931646BDF821
:102CF00030800091824607F0F7FA264B0027002C1F
:102D000008BF1C46202EB34681463D46A8BF4FF063
:102D1000200BBE420FDCB8F1000F08D007F0E4FA38
:102D2000A0EB0900404502D3B54238BFFF2568B289
:102D300003B0BDE8F08F5146204600F05FFA2368EB
:102D400000991B6820469847204600F081FBF21B43
:102D5000202AA8BF2022D2B25146204600F070FBA4
:102D6000236820461B69984788B1B8F1000F08D145
:102D7000236820465B699847019B58550135EDB2A1
:102D8000EEE707F0B1FAA0EB09004045F0D35F444D
:102D9000BFE700BFE002002013B5049CCDE900347A
:102DA00013460122FFF79EFF02B010BD30B585B07B
:102DB0001D460A9B00931446BDF824300DF10F0206
:102DC000FFF7EAFF58B10123621BAB4001329DF8C7
:102DD0000F10013B93400B401341089A137005B04C
:102DE00030BD0000F8B5069C1D46104B002C08BFF6
:102DF0001C460F4601462046164600F0FFF92368A0
:102E000039461B68204698472E44B54206D12046D5
:102E100000F01EFBB0FA80F04009F8BD236815F8F9
:102E2000011B1B6820469847EFE700BFE002002027
:102E30001FB58DF80F20009301220DF10F03FFF74E
:102E4000D1FF05B05DF804FB2DE9F04385B098464D
:102E50000C9F0F4B009791461B880DF10F02012428
:102E600005460E4604FA09F4FFF796FF9DF80F2079
:102E7000B8F1000F09D02243D2B23B463146284672
:102E800005B0BDE8F043FFF7D3BF22EA0402F4E740
:102E90000E0000202DE9F04385B099460D9F144B9C
:102EA000009790461B889DF830400DF10F020546B3
:102EB0000E46FFF771FFB8B10123A8EB090203FA30
:102EC00009F30132013B934094409DF80F20E4B296
:102ED0001C4022EA030222433B463146284605B005
:102EE000BDE8F043FFF7A4BF05B0BDE8F08300BF25
:102EF0000E000020426042F6F822017082617047A5
:102F000013B50446032912D8DFE801F018020F15A3
:102F10000B4B23626368CDE900130422207802235F
:102F20001B21FFF7B7FF02B010BD064BF1E70649C2
:102F3000064807F023F8064B0321EAE7054BE8E7CC
:102F40000000FA3C00007A3D33CB00086405002005
:102F50000000FA3D00007A3C13B50446032914D85A
:102F6000DFE801F01B0210174FF06653E36163685E
:102F7000CDE900130422207802231C21FFF78AFFE9
:102F800002B010BD4FF06853F0E70549054806F060
:102F9000F5FF4FF06A530321E8E74FF06453E5E78C
:102FA00068CB000864050020F7B504461D460346BB
:102FB0001646626813F8080B0192094A12880092BB
:102FC0000F4606223B21FFF78DFE23895BBA3B802B
:102FD00063895BBA3380A3895BBA2B8003B0F0BDF1
:102FE0000E00002007B5426800920B4606226B21B6
:102FF0000078FFF729FF03B05DF804FB07B54368CD
:10300000CDE90013022203236B210078FFF742FF72
:1030100003B05DF804FB10B501210446FFF7EEFF95
:1030200020460021FFF76CFF20460021FFF794FFA8
:1030300020460021BDE81040FFF7D4BF1FB543680C
:103040000293084B1B88019300F1080300930623A9
:1030500004461A4675210078FFF7A8FE207A04B0CE
:1030600010BD00BF0E00002008B5FFF7E7FF3428B1
:1030700006D00C2818BF3A280CBF0120002008BD3C
:103080000120FCE7028BC08A101A7047C28A018BAC
:10309000914288BF0169034683BF885C0132DA82AE
:1030A0004FF0FF307047028BC38A9A4286BF026995
:1030B000D05C4FF0FF307047806DD0F8DC302BB122
:1030C00000234384D0F8E030D43018477047836839
:1030D00010B5044613B1032201469847204610BD9F
:1030E00070B54FF47A730E460021C0E90113034610
:1030F00015462B4A43F8C42B0446C0F8C4109C2242
:10310000C3E90111C0E93411C0E93611C0F8E0107B
:10311000283007F0C4FBF3B26D2B19D8214A52F8BE
:10312000233006F4E0661E43EBB26D2BC4F88460D6
:1031300022D81C4A52F8233005F4E0651D430023D1
:10314000C4F88850E36123842361A382204670BDC4
:1031500006F0C002C02A0CD1D22B0AD8124B06F0BE
:103160003F0206F4E06653F822200E4B53F822305B
:10317000D9E74FF0FF36D7E705F0C002C02A0CD1DF
:10318000D22B0AD8084B05F03F0205F4E06553F84E
:103190002220044B53F82230D0E74FF0FF35CEE722
:1031A0007C070108B00E0108640E010838B504461A
:1031B000283000F003FBE06918B107F049FA00235A
:1031C000E36120690025258410B107F041FA2561EB
:1031D000A58238BD38B50546074B45F8D43B0446B3
:1031E000FFF7E4FF2846FFF772FF04F1C400FFF782
:1031F0006EFF204638BD00BF7C07010801239940BF
:1032000080F82430002381764384704738B5838A60
:103210008B4205460C4609D2202938BF202400697C
:10322000214607F0CBFA10B12861AC8238BDFEE729
:1032300073B5846D866ED4F8CC300546E3B1E28A6E
:10324000238B9A4218D331462046FFF7DFFF2069CF
:10325000324605F1740107F067FB0023E382D4F8DE
:10326000CC30268301960BB909F01CFCD4F8D03081
:1032700001A904F1C400984702B070BDB1F5806F98
:1032800070B505460C4610D8038C99420AD92029FE
:103290000E4638BF2026C069314607F08FFA18B1B4
:1032A000E8612E84204670BDFEE70024FAE713B5DE
:1032B00090F824308DF8071004467BB1418C013121
:1032C000FFF7DCFF40B1638CE2699DF80710D15431
:1032D000638C01336384012002B010BD01220DF123
:1032E0000701283000F0BAFAB0FA80F04009F3E79D
:1032F00070B590F8243004460E46154693B1418CC3
:103300001144FFF7BBFF10B90025284670BD638C40
:10331000E0692A461844314607F006FB638C2B44CB
:103320006384F2E792B2283000F098FA0028EBD1DB
:10333000EBE70346006918B19A8A002107F0AFBA9B
:1033400070470346C06918B11A8C002107F0A7BA6C
:10335000704738B50446D1B94FF42A03A36594F8F1
:10336000BE30012B16D1638CE269A17E04F12800E6
:1033700000F0F4FA042828BF0420C5B22046FFF765
:10338000E0FF0023638484F82430284638BD4FF0E2
:103390002A43E3E70425F8E72DE9F04790F8BEA0BB
:1033A0009DF820609DF82490BAF1010F04460F4665
:1033B0001546984639D111467F00FFF727FFFFB227
:1033C0007EB10023032E84F824A0A776638428BF4F
:1033D0000326013EF6B2FF2E1BD100212046FFF747
:1033E000B8FFB9F1000F1DD14FF42A03A36522697C
:1033F0002B46394604F1280000F04AFA002398428F
:103400002E461CBF1D462E46E38226832846BDE875
:10341000F0872368F10028FA01F11B68C9B2204641
:103420009847D6E74FF02A43E0E70020EFE707B5DB
:10343000019300230093FFF7AFFF03B05DF804FB97
:103440000123FFF7F4BF0123D2B2C9B2FFF7EFBFE8
:103450000121FFF77EBF38B504460025C5820583EC
:10346000FFF767FF65842046FFF76BFF38BD00005C
:103470002DE9F0410446D0F8840006F013FE002147
:1034800006F054FED4F88430C3F30312082A44D85B
:10349000264D274F55F8222003F00F03126957F8E5
:1034A000233093433FD0D4F8880006F0FBFD012180
:1034B00006F03CFED4F888001E4B1F4C1B68B3FB83
:1034C000F4F3C0F303110A24082900F00F0204FBEF
:1034D00003F325D857F82270184A14264FEA074EEE
:1034E00055F821C0CCF818E0D2F804805468A4EB59
:1034F0000804A342FADCCCF81870D2F804C054686F
:10350000A4EB0C04A342FADC013EE9D106F0CAFDAB
:103510003146BDE8F04106F009BE00231B69FFDE1D
:1035200000239B61FBE7BDE8F08100BF1C00002089
:10353000A00701084800002040420F00001000E0F2
:103540002DE9F04104460026C68206831F460D463B
:103550009046FFF7EEFE6684A6762046FFF7F1FE62
:10356000D4F8DC30C4F8804033B104F1D401032234
:1035700008469847C4E93766002384F824306B0076
:1035800084F825306B1E5D425D4184F8BE502046B4
:1035900084F8BF8084F8C07004F12805FFF768FF45
:1035A00094F825200949284600F02AF894F8BE30FE
:1035B0004BB92846064900F029FA28460549BDE8D6
:1035C000F04100F01CBABDE8F08100BFA086010008
:1035D000B9300008313200080A4600230121FFF704
:1035E000AFBF0000024836223721FFF779BD00BF88
:1035F000E00200200148FFF7EDBD00BFE00200201F
:10360000F0B50D4685B016460446002800F0C0808F
:103610006049C06D04F01EFB5F490746206E04F050
:1036200019FB0146002F00F0B380002800F0B080A5
:10363000384604F036FB2060002800F0A980574B84
:10364000984204F104074FF0000361D10193544BF9
:103650001A6C42F400121A641A6C02F400120192FD
:10366000019A1A6A42F400121A621A6A22F40012CB
:103670001A6242F21F03A4F864304A4B1F604649A5
:10368000206E04F0CFFA4349E06D04F0CBFA464BCC
:1036900021689D4276D9454B9D4203D9444B9D42BA
:1036A00088BF00234FF480420025C4E901134FF482
:1036B0008043C4E9053594F8973094F96400E561D6
:1036C0005B1B18BF01239B01236294F8983084F898
:1036D00041505B1B18BF0123DB0163620221C4E977
:1036E00003262A4600F00AFB94F9640000F038FB38
:1036F00094F965002A46022100F000FB94F9650068
:1037000000F02EFB384600F051FC00283CD0FEE7CC
:10371000284A904219D10293214B1A6C42F480023C
:103720001A641A6C02F480020292029A1A6A42F433
:1037300080021A621A6A22F480021A6242F221237B
:10374000A4F86430174B5F6099E71B4A904296D10A
:103750000393134B1A6C42F400021A641A6C02F4BD
:1037600000020392039A1A6A42F400021A621A6A69
:1037700022F400021A6244F64813A4F86430094B9C
:103780009F607CE700228FE70223A06684F89530D3
:1037900005B0F0BDF80D0108B00D0108005400405F
:1037A00000380240C4030020A0860100801A0600F1
:1037B00040420F0000580040005C004010B5044635
:1037C00090F9640000F0DAFA94F9650000F0D6FA96
:1037D000201D00F094FC206E032104F095F9E06DAB
:1037E000032104F091F92368184A93420DD1184B34
:1037F0001A6A42F400121A621A6A22F400121A6259
:103800001A6C22F400121A6410BD124A93420CD1B1
:103810000F4B1A6A42F480021A621A6A22F480027A
:103820001A621A6C22F48002EDE70B4A9342EBD144
:10383000074B1A6A42F400021A621A6A22F4000262
:103840001A621A6C22F40002DDE700BF0054004047
:103850000038024000580040005C0040202A30B58B
:1038600014D800239CB2A24207D890F89430134495
:10387000DBB280F89430002030BD90F89440CD5CED
:103880001C440444013384F87450EBE70120F3E74F
:103890002DE9F34705460F469046994600F002FA97
:1038A0000024D5F830A006460435CDF800A04B46DC
:1038B00042463946284600F04FFD022806D100F066
:1038C000F1F9841B642CF0D906201FE008BB00F03E
:1038D000E9F90646284601F0A9FC202809D0632C06
:1038E00007D800F0DFF9841B284601F0A2FC00286D
:1038F000F0D0284601F09DFC632C0CD882060AD437
:1039000043070AD4003818BF0120800002B0BDE888
:10391000F0870420FAE70520F8E70320F6E710B562
:1039200064230446043000F003FC022810D003286E
:1039300006D090B194F84130202B18BF042004E049
:1039400094F84130202B18BF052008BF022004E066
:1039500094F84130202B18BF062010BD2DE9F34705
:1039600004460E4691461F4600F09CF980463FB93A
:1039700001223146204602B0BDE8F047FFF7CFBF35
:10398000D4F830A000250434CDF800A03B464A46C8
:103990003146204600F078FC022807D100F082F979
:1039A000A0EB0805642DEFD906201FE008BB00F04E
:1039B00079F90646204601F039FC202809D0632D0C
:1039C00007D800F06FF9851B204601F032FC002873
:1039D000F0D0204601F02DFC632D0CD882060AD4CD
:1039E00043070AD4003818BF0120800002B0BDE8A8
:1039F000F0870420FAE70520F8E70320F6E720B176
:103A000019B1C166043000F0A3BD704720B119B1EF
:103A10000167043000F09CBD704770B590F891309C
:103A2000012B04460D46A0F1040609D1436E3BB1BB
:103A3000836E30469847022384F8913000236366F2
:103A40008DB9E36E84F891501BB184F890503046E4
:103A5000984794F8902004F1700120462023BDE897
:103A6000704000F0FFBC00230122636684F89120BF
:103A7000616E7431314420460423BDE8704000F08B
:103A80002CBD10B590F89130012B044604D1436E43
:103A900013B1836E04389847022384F891300023D1
:103AA00063662046BDE8104000F052BD436E1F2BF8
:103AB000DEBF436E0133436690F89130012BDAB2DA
:103AC00005D1416E70310423014400F006BD7047FA
:103AD000002380F89030704790F892300BB900F0D6
:103AE00037BD7047014B186800F0B2BEC403002018
:103AF000014B186801F0FEBAC4030020014B58685E
:103B000000F0A6BEC4030020014B586801F0F2BAD1
:103B1000C4030020014B986800F09ABEC403002043
:103B2000014B986801F0E6BAC403002038B50D4691
:103B3000017808481446FFF761FB29460548FFF75E
:103B4000B6FB21460348FFF7B2FBBDE83840014809
:103B5000FFF77EBCE002002010B4BDF80440234310
:103B600013430B435DF8044BDAB20921FFF7DEBFC4
:103B700010B5012204460B21FFF7D8FF20461D2275
:103B8000BDE810400921FFF7D1BF0000F8B5044699
:103B90000F4601781C4816461D46FFF72FFB1A48B2
:103BA0000021FFF784FB1848FFF752FC58BB21782F
:103BB00015480722FFF747FC1348FFF767FA04464A
:103BC0001148FFF763FA44EA002424B23C600E482F
:103BD000FFF75CFA04460C48FFF758FA44EA002461
:103BE00024B234600848FFF751FA04460648FFF74C
:103BF0004DFA44EA002424B203482C60FFF746FA49
:103C000000F002008000F8BDE002002070470000D4
:103C100038B50E4B1A784FF47A73B3FBF2F30C4AB3
:103C200005461068B0FBF3F000F0BAF8044658B946
:103C30000F2D09D8024629464FF0FF3000F05EF8FC
:103C4000044B20461D6038BD0120FCE71000002019
:103C5000480000201400002008B50B4B1A6842F4FD
:103C600000721A601A6842F480621A601A6842F49C
:103C700080721A60032000F02FF80020FFF7C8FFC1
:103C8000FFF7C4FF002008BD003C0240034A044B7C
:103C900011681B780B441360704700BFD0030020ED
:103CA00010000020014B1868704700BFD0030020AF
:103CB00038B50446FFF7F6FF631C1CBF054B1B78A5
:103CC000054618BFE418FFF7EDFF431BA342FAD3E4
:103CD00038BD00BF100000200749CA6822F4E06226
:103CE0000302120403F4E063120C134343F0BF63B6
:103CF00043F40033CB60704700ED00E0164B30B565
:103D0000DC68C4F30224C4F10703251D042B28BF7B
:103D10000423062D4FF0FF358CBF033C002405FA29
:103D200003F321EA0303A54022EA0502A340002889
:103D300043EA0203ACBF00F16040084A4FEA0313B4
:103D4000B8BF00F00F00DBB2AABF00F5614013540A
:103D500080F8003330BD00BF00ED00E014ED00E05E
:103D6000002807DB044A4109012300F01F008340BB
:103D700042F82130704700BF00E100E000280CDB72
:103D80004309064900F01F0020330122824041F818
:103D90002320BFF34F8FBFF36F8F704700E100E028
:103DA0000138B0F1807F0BD24FF0E023054A586113
:103DB000F02182F823100020072298611A617047D1
:103DC0000120704700ED00E0002808DB43090449AA
:103DD00000F01F0001226033824041F82320704729
:103DE00000E100E0704708B5FFF7FCFF08BD704731
:103DF00010B5044650B1437903F0FF0213B90271C4
:103E0000FFF7F5FF01236371002010BD0120FCE7DF
:103E100010B5044640B10223037103F0CFFC00202B
:103E200020616071207110BD0120FCE710B50123F5
:103E300058B1046801F01001226803FA01F122EA86
:103E4000010222600371002010BD1846FCE770B526
:103E50000446866DFFF726FF94F83530022B0546A1
:103E600006D0802363650120002384F8343070BDC0
:103E700023681A6822F016021A605A6922F080023A
:103E80005A61226C0AB9A26C1AB11A6822F00802AF
:103E90001A601A6822F001021A602368186810F08C
:103EA000010007D1E26D3F239340B360012384F802
:103EB0003530D9E7FFF7F6FE401B0528EDD9202362
:103EC0000320636584F83500CEE790F83530022B87
:103ED00003D080234365012070470268052380F8E2
:103EE0003530136823F0010313600020704790F809
:103EF00035007047044A5169014208B502D050614B
:103F000003F01EFD08BD00BF003C01402DE9F8464E
:103F100006460F4691461D464FEA114A3368BAF1EC
:103F2000010F39D15C6927EA0404A4B2B4FA84F41D
:103F30006409A14501D0002024E06A1CEFD0FFF7FE
:103F4000B1FE089BC01AA84201D8002DE6D1BAF1F3
:103F5000010F336818D15B6927EA03039BB2B3FAF8
:103F600083F35B099945D9D100232022336386F876
:103F70003D2086F83E30326C86F83C3042F020021C
:103F800032640120BDE8F8869B69DB43C3F340033C
:103F900083F00103DBB2E5E79C69E443C4F340042A
:103FA00084F00104E4B2C4E77047000070B5044631
:103FB00008B9012070BD90F83D3003F0FF021BB935
:103FC00080F83C20FFF7F0FF242384F83D3023687D
:103FD0001A6822F001021A601A6842F400421A605C
:103FE0001A6822F400421A6002F0C2F83F4B65687A
:103FF0009D4294BF3E4B3F4B98428CBF0023012310
:10400000002BD6D12268394E51683B4BB0FBF3F3FD
:1040100021F03F011943B542516088BF4FF49676B5
:10402000116A88BF734321F03F0184BF4FF47A7651
:10403000B3FBF6F301330B431362D169431E2B48E4
:1040400021F44F41854221F0FF0132D86D0040F646
:10405000FC70B3FBF5F30133034242D0C3F30B030F
:104060001943D161D4E907301168034321F0C0013D
:104070000B4313609168D4E9030321F40341034324
:1040800021F0FF010B439360D4E90530D16803436D
:1040900021F0FF010B43D360136843F00103136069
:1040A00000202023206484F83D30206384F83E0003
:1040B00080E7A06850B905EB4505B3FBF5F3013384
:1040C000C3F30B037BB143F40043C9E719206843F2
:1040D000B3FBF0F30133C3F30B0323B143F44043C9
:1040E000BEE70423BCE70123BAE700BFA0860100B6
:1040F0007F841E00FF083D0040420F00704710B54E
:10410000044698B10268242380F83D30136823F0F8
:1041100001031360FFF7F2FF0020206484F83C00E5
:1041200084F83D00206384F83E0010BD0120FCE7C8
:104130002DE9FF4704461F4689469246FFF7B2FD28
:1041400094F83D30202B054603D0022004B0BDE892
:10415000F08700904A49192301222046FFF7D6FE36
:104160000028F2D194F83C30012BEED0012384F8E2
:104170003C3023681A68D2075EBF1A6842F0010219
:104180001A601A6822F400621A60242384F83D3011
:1041900000263C4B266409F0FE09E362226813689E
:1041A00043F4807313604FF001113B4600950022E9
:1041B0002046FFF7ABFE236838B11B68DB0544BF20
:1041C0004FF4007323640320C0E7C3F81090FFF797
:1041D00069FD2268536952690546C3F34003C2F37F
:1041E00080224FF0A00894F83D10A02901D013437D
:1041F0001DD020684FF0200884F83D80436913F0FB
:10420000020F036843F40073036025D00023039377
:104210004369039383690393039B19490095192309
:1042200001222046FFF772FE88B101208EE7FFF7DA
:1042300039FD401BB84200D80FB984F83D80226890
:1042400053695269C3F34003C2F38022CBE784F879
:104250003D8084F83C0079E76FF48063436108494E
:104260000095192301222046FFF750FE0028DCD1DB
:104270000136564592D384F83D8084F83C00D4E75B
:10428000020010000000FFFFF7B50025044600956E
:10429000019594F83D500898202D02D0022003B0DB
:1042A000F0BD25682E68B60503D4082801D0012882
:1042B0001BD1284E46F2A8173668B6FBF7F6192729
:1042C0007E430196019E013E0196019E56B9202330
:1042D000266384F83D3084F83E60236C43F020036D
:1042E0002364DBE7AE69B707ECD494F83C60012E99
:1042F000D4D02E68F6075EBF2E6846F001062E6009
:104300002E6826F400662E60212684F83D60102673
:1043100084F83E60002626646385638DE0626164F4
:104320002385236B0093009B6262112B05D1B0F5AE
:104330002A0F02D0B0F12A4F03D12B6843F48073C7
:104340002B60002084F83C006B6843F4E0636B60F2
:10435000A5E700BF48000020F7B5002504460095FA
:10436000019594F83D500898202D02D0022003B00A
:10437000F0BD25682E68B60503D4082801D00128B1
:104380001BD1374E46F2A8173668B6FBF7F6192749
:104390007E430196019E013E0196019E56B920235F
:1043A000266384F83D3084F83E60236C43F020039C
:1043B0002364DBE7AE69B707ECD494F83C60012EC8
:1043C000D4D0012684F83C602E68F6075EBF2E68C4
:1043D00046F001062E602E6826F400662E60222626
:1043E00084F83D60102684F83E60002626646385CC
:1043F000638DE06261642385236B0093638D626249
:104400009BB2022B24D1202801D0102820D1009B60
:10441000122B2B681DD123F480632B602B6843F48F
:1044200000632B604FF44072009B122B05D1B0F556
:104430002A0F02D0B0F12A4F03D12B6843F48073C6
:104440002B60002084F83C006B6813436B608EE7A0
:104450002B6843F480632B604FF4E062E4E700BF15
:104460004800002037B5044690F83D0000F02800D1
:10447000282830D100292CD0002A2AD094F83C00DA
:10448000012828D025682868C0075EBF286840F04A
:1044900001002860286820F400602860292084F842
:1044A0003D00202084F83E00002020646285628D5B
:1044B000E36201906B690193AB69019384F83C005E
:1044C000019B6B68616243F4E06322856B6003B01B
:1044D00030BD0120FBE70220F9E737B5044690F82C
:1044E0003D0000F02800282830D100292CD0002AD7
:1044F0002AD094F83C00012828D025682868C007F5
:104500005EBF286840F001002860286820F4006041
:1045100028602A2084F83D00202084F83E000020F6
:1045200020646285628DE36201906B690193AB69DF
:10453000019384F83C00019B6B68616243F4E06383
:1045400022856B6003B030BD0120FBE70220F9E754
:1045500090F83D30202B14D1282380F83D3003689B
:104560001A68D2075EBF1A6842F001021A601A6820
:1045700042F480621A605A6842F440725A60002025
:1045800070470220704770477047704790F83D2091
:1045900008B5036DD2B283B9C36C0268012B836C7A
:1045A00005D1DBB21361036D0233036508BDC3F3AC
:1045B00007231361036D0133F7E7036D012B03D16B
:1045C000836C0268DBB2F4E7036D022B2FD1222A41
:1045D00005D10268136843F480731360EAE7438DE2
:1045E0009BB263B1212A0AD1436A026813F8011B06
:1045F00011614362438D013B9BB24385D6E7438DF6
:104600009BB2002BD2D1212AD0D10268516821F46B
:10461000E0615160116841F4007111602022036370
:1046200080F83D2080F83E30FFF7AFFFBEE703681B
:104630005A69120644BF00221A61B7E770477047F3
:1046400037B5002301932D4B806B1B6890F83D20FC
:1046500046F2A811B3FBF1F323214B430193036806
:10466000D2B2019941BB016C41F020010164446B5D
:104670000CB10021E163816B09B10025CD631D6898
:1046800025F480651D600025458504B1256501B1CF
:104690000D65196821F00101196090F83D1060293D
:1046A00011D1202380F83D30002380F83E30036490
:1046B000FFF7C5FF03B030BD0199013901911968B9
:1046C0008905CED4D3E702F02802282A0ED1196832
:1046D00041F001011960196841F4806119600023FB
:1046E000036380F83D20FFF7F7F9E3E7202380F824
:1046F0003D30002380F83E30F5E700BF4800002041
:1047000010B590F83D2090F83E30102BD9B20446F9
:104710000368D2B201D0402913D1222A11D11968DD
:1047200021F400611960596811F4006106D1602A12
:104730001EBF202284F83D2084F83E100022226310
:1047400007E002F028012829EDD10022226384F835
:104750003D105A6812F400624FD05A68606B22F420
:1047600000625A6090F83530012B374B2BD003652F
:10477000FFF7ABFB50B12268606B136823F00103B5
:104780001360202384F83D30036D9847236C19078C
:104790001FBF2268536823F4E063536094F83D30F0
:1047A000226C5207DBB20DD5282B0BD1274BE362CD
:1047B000202200232363204684F83D2084F83E30E5
:1047C000FFF75FF910BDA06B0365FFF77EFB0028C4
:1047D000DCD023685A69510605D51A69636A1A70D4
:1047E000636A013363622268A06B136823F00103DC
:1047F0001360202384F83D30C6E794F83D1060290B
:1048000015D1202184F83D1022645A69520605D53D
:104810001A69636A1A70636A0133636222681368F3
:1048200023F0010313602046FFF709FFAEE75A6942
:10483000500605D51A69636A1A70636A01336362A8
:104840002046FFF749F9A1E7414600080000FFFFB5
:10485000F0B5036804465A68C66A90F83E0094F8BA
:104860003D1010288FB0C5B2C9B202D0402D40F023
:10487000DD829F69586910F0010F07D1B6F52A0F44
:1048800002D0B6F12A4F51D10FB0F0BD96054DD5EB
:10489000E26AB2F52A0F0CD10122E26294F83E20BE
:1048A000402A11D1226D52B9626C02F0FE021A61E7
:1048B000EAE7E26AB2F12A4FF0D10822EDE7626C32
:1048C00042F00102D2B2F2E72269B2F5804F1AD16A
:1048D00094F83D20212A626C11D102F0FE021A6187
:1048E000626B0AB1D26B2AB9A26B002ACCD0D26B10
:1048F000002AC9D05A6842F400625A60C4E742F004
:104900000102D2B2EBE7226D32B9626CD21102F031
:10491000060242F0F002CAE7226D012AB4D1626CAD
:10492000D21102F0060242F0F102C0E7060703D5F9
:10493000960501D5626CE4E7860740F1E8809605AC
:1049400040F1E58094F83E10E26A256B94F83D0052
:104950002228C9B240F0D380206D40B9402906D149
:1049600001905A6901929B690193019B8CE7216D2B
:1049700089B92069B0F5404F0DD102915A69029270
:104980009A690292029A1A6842F480721A60236D40
:104990000133236578E7618D89B251B903915A6972
:1049A00003929A690392039A1A6842F400721A6099
:1049B00019E0618D89B2012949D112F5803F1BD1DF
:1049C0001A6822F480621A605A6812F400620CD0ED
:1049D0001A6822F480621A60002204925A690492D2
:1049E0009B690493049B0023D3E705925A690592BF
:1049F0009A690592059AD7E7082A1CD0202A1AD06E
:104A0000122D0DD1012A16D11A6822F480621A6083
:104A1000002206925A6906929B690693069BE2E77A
:104A2000102AF1D8824941FA02F2D707ECD41A6869
:104A300042F48062EBE71A6822F480621A60002276
:104A400007925A6907929A690792079AACE7618DB3
:104A500089B2022930D1102A03D87649D140CE0735
:104A600015D4196821F480611960196841F4006156
:104A7000196059680D0514D5202A1AD8072A0AD8B2
:104A8000012A0ED15A6842F480525A6009E019682E
:104A900041F48061ECE7A2F10801674ACA40D007FF
:104AA000F0D4002208925A6908929B690893089BE7
:104AB00099E712F5803FE4E7196841F480611960D5
:104AC0005968090510D5202A16D8072A06D8012AC0
:104AD0000AD15A6842F480525A6005E0A2F10801F6
:104AE000554ACA40D207F4D4002209925A69099261
:104AF0009B690993099B76E712F5803FE8E700225E
:104B00000A925A690A929B690A930A9BBCE67F073C
:104B100040F194805E6836053FF5B6AE070600F0BA
:104B200004063ED550053CD5002E3DD194F83D20DD
:104B3000258D94F83E10E06AD2B2C9B2C5B9212AD7
:104B400018D1082858D0202856D010F5803F53D0CF
:104B50005A6822F4E0625A6011232363002384F828
:104B60003E30202384F83D302046FFF70CFD8BE6D5
:104B7000212A05D040297FF487AE222A7FF484AE13
:104B8000628D92B21AB95A6822F48062B5E694F83E
:104B90003E20402A16D120460FB0BDE8F040FFF776
:104BA000F5BC002E3FF470AE97057FF56DAE212960
:104BB00039D1E16A94F83D20212A7FF465AE628DF7
:104BC00092B24AB1626A12F8011B19616262638D86
:104BD000013B9BB2638557E608290DD020290BD0F5
:104BE00011F5803F08D0596821F4E0615960112324
:104BF000236384F83E20B4E75A6822F4E0625A60E6
:104C00001A6842F400721A6000232022236384F899
:104C10003D2094F83E2084F83E30402A2046A4D11E
:104C2000FFF7B3FC30E6402D7FF42EAEB3E700BFB4
:104C3000EBFFFEFF140001000101000159680E05A1
:104C40003FF522AE450600F0040140F18680500594
:104C500040F18380002940F0838094F83D20222A8F
:104C60007FF412AEE06A628D92B2032A14D91A69F7
:104C7000636A1A70636A01336362638D013B9BB29E
:104C80006385638D9BB2032B7FF4FEAD226853686E
:104C900023F480635360F7E5E56A022D3FF473AFB8
:104CA000012A3FF670AF7B4A0B91126846F2A811B9
:104CB000B2FBF1F202EB82020B920B9A013A0B92D9
:104CC0000B99D1B9226C42F0200222645A6822F476
:104CD000E0625A601A69636A1A70636A0133636238
:104CE000638D013B9BB26385202384F83D302046D1
:104CF00084F83E10FEF7F0FEC6E51A6812F4007262
:104D0000DBD1196821F480611960596821F4E061F0
:104D100059601969636A1970636A01336362638D4C
:104D2000013B9BB26385202384F83D3094F83E30EC
:104D300084F83E20402B04D122632046FFF77EFCFE
:104D4000A2E5082801D0202801D1002300E0122389
:104D500023632046FFF718FC96E500293FF494AD45
:104D600092057FF591ADE26A608D616A80B2042898
:104D700009D15A6822F480625A601B690B70636A19
:104D80000133636223E7608D80B203280CD1586839
:104D9000042A20F480605860EFD0022AEDD01A680F
:104DA00022F480621A60E8E7608D80B20228E4D1C4
:104DB000042A33D007D8012A07D0022A2ED0186837
:104DC00040F4007004E0102AF9D1186820F48060E3
:104DD00018601B690B70616A4B1C6362638D013B39
:104DE0009BB2638523681B694B70636A216801333A
:104DF0006362638D013B9BB263854B6823F4407310
:104E00004B60202384F83D3094F83E30402B4FF027
:104E1000000384F83E3005D123638EE7186840F420
:104E20008060D5E7082A90D0202A8DE7206C18B33F
:104E30005869002587072FD596052DD5226C02B11C
:104E40009D6994F83D2002F02802282A17D15A685B
:104E50002F0622F480625A60C5F3800154BFE268D5
:104E6000A269002381F00101C9B284F83C3092B2FA
:104E70002046FEF7D2FD07E59D695869DAE7002272
:104E80000C9259690C919B690C930C9B84F83C2003
:104E9000FAE400BF48000020C60640F1B180950545
:104EA00040F1AE8094F83D505A6822F4E0625A60B6
:104EB00000220D925A690D921A6842F001021A609E
:104EC0000D9A1A6822F480621A605A681005EDB2D1
:104ED00020D505F0F702222A4AD1A06B0268526859
:104EE00092B26285628D92B21AB1226C42F00402D3
:104EF00022645A6822F400625A60FEF7F8FF012823
:104F000008D0A06B794B0365FEF7DFFF10B1A06BF3
:104F1000036D9847638D9BB213B323685A69510799
:104F200009D51A69636A1A70636A01336362638D13
:104F3000013B9BB2638523685A69520609D51A69F9
:104F4000636A1A70636A01336362638D013B9BB2CB
:104F50006385638D9BB21BB1236C43F00403236410
:104F6000236C13B320460FB0BDE8F040FFF7C8BB79
:104F7000606B0268526892B26285628D92B21AB119
:104F8000226C42F0040222645A6822F400625A60E1
:104F9000FEF7ADFF0128BDD0606B544B0365FEF7F3
:104FA00094FF0028B6D0606BB2E72A2D06D12363A8
:104FB000282384F83D302046FEF778FD94F83D30F4
:104FC000282B0CD14A4BE362202200232363204686
:104FD00084F83D2084F83E30FEF753FD54E4236B03
:104FE000222B02D0222D7FF44FAC002320222363FA
:104FF00084F83D2084F83E302046FEF757FD43E418
:1050000001F0F701212900F0040535D1070627D565
:10501000560525D53DBB94F83D00628D92B2C0B2D5
:10502000002A3FF431AC626A12F8015B1D616262D2
:10503000628D013A92B26285628D92B2002A7FF44B
:1050400023AC29287FF420AC5A6822F480625A608D
:1050500028232163204684F83D30FEF739FD13E410
:10506000002D3FF411AC95057FF50EAC628D92B228
:10507000002A3FF409ACA5E5400627D5510525D502
:105080003DBB94F83D20618D89B2D2B200293FF436
:10509000FBAB1969636A1970636A01336362638DDC
:1050A000013B9BB26385638D9BB2002B7FF4ECAB1D
:1050B0002A2A7FF4E9AB2268536823F480635360A3
:1050C00022232363282384F83D3095E7002D3FF405
:1050D000DBAB92057FF5D8AB628D92B2002A3FF42C
:1050E000D3AB1A69636A1A7049E600BF41460008EB
:1050F0000000FFFFF8B503685F695E6890F83E2026
:1051000017F480750446D2B206D016F480751EBF1F
:105110006FF4807159610125B80506D5F10542BFCC
:105120006FF4007145F002055961780536D5F10537
:1051300034D5608D94F83D10D4F830C0202A80B268
:10514000C9B25FD100285DD101F0F700212804D059
:10515000282957D1BCF1210F54D194F83D20E16AA0
:105160000829D2B201D020292AD1282A28D12E4AB2
:10517000E2625A6822F4E0625A606FF480625A6117
:105180001A6822F480621A600023202223632046DA
:1051900084F83D2084F83E30FEF773FC3A053FD595
:1051A000F3053DD523686FF4006245F008055A61A8
:1051B000236C1D4325642046BDE8F840FFF7A0BAE4
:1051C000212A1BD11849E16222630021202284F8A0
:1051D0003D2084F83E105A6822F4E0625A606FF471
:1051E00080625A611A6822F480621A605A69100655
:1051F00048BF19612046FEF76BFCCFE76FF4806271
:105200005A61CBE76FF48061102A596145F00405BB
:1052100001D0402AC2D11A6842F400721A60BDE778
:10522000002DC5D1F8BD00BF0000FFFF90F83D0084
:105230007047006C7047F7B5044610B390F895348A
:10524000056803F0FF021BB980F8942403F0CAFD3F
:105250000323B5F1A04F84F8953404BF0023A37154
:10526000206801F0D5FD237C8DF80030251D95E8E0
:105270000E00206801F011FD014630B1022384F8D0
:1052800095340125284603B0F0BD206801F0C6FD25
:105290000028F3D1267904F1140301270246C1B294
:1052A0008E4203F124031BD8002104F515730A462E
:1052B000C8B2864203F1240320D8237C8DF8003045
:1052C00095E80E00206801F025FE05460028D5D19E
:1052D00001236074206884F8953402F050F9D1E716
:1052E00023F80A0C43E9072203F8237C03F8241C63
:1052F00003F8202C43F8142C0130D0E743E90722AF
:1053000003F8232C03F8240C03F8202C43F8142C66
:105310000131CDE710B50446006894F89434012BB0
:1053200015D0012384F89434C3685B0606D5637BEB
:10533000012B02BF836B43F48033836301F062FD72
:10534000206802F00EF9002084F8940410BD0220B9
:10535000FCE710B590F89424012A04460AD00122F3
:1053600080F894244174006802F0EBF8002084F87F
:10537000940410BD0220FCE770B50546242401F01A
:105380000F0011F0800F00FB04F414BF04F11401AE
:1053900004F5157105EB040615BF491949190124D7
:1053A000002414BF747586F85542C2F30A028A605D
:1053B0004A7808700B7102B14883022B04BF0023A6
:1053C0004B7195F89434012B09D00123286885F896
:1053D000943401F064FE002085F8940470BD02202E
:1053E000FCE701F00F02242311F0800F02FB03F30E
:1053F00010B514BF03F1140103F51571044618BF6D
:10540000091918440BBF091901230023437508BF6C
:1054100080F855320A7094F89434012B09D0012396
:10542000206884F8943401F079FE002084F8940414
:1054300010BD0220FCE738B51546242401F00F0208
:10544000544304F515710444C4E99853002384F8C7
:10545000553284F85422C4F868328279012A014412
:1054600008BFC4F87052006801F004FF002038BD86
:1054700001F00F01242303FB0100D0F868027047FC
:1054800038B51546242401F00F02544304F11401E9
:105490000444C4E908530023A36201236375227501
:1054A00082799A42014408BF2563006801F0E2FE58
:1054B000002038BD38B5037901F00F05AB42044632
:1054C0002BD311F0800F4FF024031DD06B4303F159
:1054D00014010344012201445A7501238B700D709D
:1054E00094F894249A421AD0206884F8943401F0F5
:1054F000D4FF2DB9A179206804F29C4202F08EF805
:10550000002084F8940438BD4B4303F5157103441F
:105510000022014483F85522DFE70120F3E702204F
:10552000F1E738B5037901F00F029342044625D321
:10553000242311F0800F02FB03F314BF03F11401C5
:1055400003F51571184415BF091909190123002322
:105550004FF0000514BF437580F855328D700A7006
:1055600094F89434012B0BD00123206884F89434F0
:1055700001F0BEFF84F89454284638BD0120FCE7B2
:105580000220FAE701F00F03242253430A064CBF1E
:1055900003F1140103F515710144006801F014BE14
:1055A0002DE9F04F066889B00446304602F023F832
:1055B0000390002840F05681206801F0EEFF00289B
:1055C00000F05081D6F808382068C3F30D23C4F8E2
:1055D000D43401F0E2FF2368870742BF5A6902F022
:1055E00002025A61184601F0D8FFC00606F50065B0
:1055F0002DD52268936923F010039361D6F820809B
:1056000008F4F013B3F5802F08F00F0740F02D8158
:1056100047F6F07318EA030F14D0242303FB07475F
:10562000C8F30A19D7F860124A46304601F014FF51
:10563000D7F860324B44C7F86032D7F868324B4431
:10564000C7F868322268936943F0100393612068B9
:1056500001F0A3FF010300F11B81206801F09DFF11
:1056600042030CD5206801F0A4FF2746049006F5FC
:10567000106B4FF0000A049B002B40F0D381206890
:1056800001F08BFF002813DA6B6823F001036B60D5
:1056900094F8CC34012B40F06C82002184F8CC14B7
:1056A000204600F0E8FA2268536903F00043536192
:1056B000206801F072FF01050AD5AB68DA0702D550
:1056C000204603F051FC2268536903F400635361E0
:1056D000206801F062FFC30433D56B68206823F0B3
:1056E00001036B60102101F0C9FB207906F51063FE
:1056F0004FF67F31039A904200F23F82EB6943F00C
:105700000113EB61E37B002B00F05482D5F8843069
:1057100043F00B03C5F884306B6C43F00B036B64F0
:10572000D6F80038206823F4FE63C6F8003804F287
:105730009C42A17901F072FF2268536903F48053FF
:105740005361206801F029FF870416D5206801F015
:1057500056FF206801F098FCE071276800F002FD18
:10576000E2790146384601F0DDFA204603F0EBFB12
:105770002268536903F400535361206801F00DFF60
:10578000000707D5204603F0DAFB2268536903F0CF
:1057900008035361206801F000FF010600F1158243
:1057A000206801F0FAFEC2020CD5A04606F5126987
:1057B00001272379BB4200F221822268536903F456
:1057C00080135361206801F0E8FE83022DD594F820
:1057D00004E0234606F5326001218E4520D993F876
:1057E0007CC20268BCF1010F40F01E82002A80F2E8
:1057F0001B82D4F8D47402F4803207F00107BA4255
:1058000040F0128283F87BC2B26942F08002B2613A
:105810007269170600F108826B6843F400736B60CD
:105820002268536903F400135361206801F0B5FE48
:10583000410007D5204603F0D1FB2268536903F0ED
:1058400080435361206801F0A8FE42070AD523680F
:105850005D686B0702D5204603F0C4FB22685368DD
:105860002B43536009B0BDE8F08FB3F5402F7FF4B0
:10587000E9AE082204F29C41304601F0EDFD2423FC
:1058800003FB0747C8F30A18D7F868324344D7E642
:10589000206801F086FE06F530680490A2460027D5
:1058A000049B002B3FF4D9AE049BDB0779D55FFA4C
:1058B00087FB2068594601F084FE10F0010F8146F5
:1058C0001FD020680123C8F8083094F806C0016C86
:1058D00000F5306303EB4713BCF1010F9A6840F009
:1058E0008B8012F0080F07D0B048814209D912040A
:1058F00007D54FF4004203E012F0200F5AD02022C7
:105900009A6019F0080F21D00823C8F808302368DE
:10591000A6491A6C03F5306303EB47138A42986873
:1059200004D9010444BF4FF400409860204605921A
:1059300003F0EEFA059A9D498A4207D9A179012917
:1059400004D1206804F29C4201F068FE19F0100FA7
:105950001CBF1023C8F8083019F0020F14D0736967
:105960001B0642BF6B6843F480636B609AF8573242
:10597000012B06D100238AF857325946204603F0FE
:1059800025FB0223C8F8083019F0200F1CBF202384
:10599000C8F8083019F4005F1CBF4FF40053C8F872
:1059A0000830049B5B080137049308F120080AF1D2
:1059B000240A75E7DFF8F4C1614501D9120498D4CF
:1059C0001A69DAF87432C2F312029B1ACAF8683202
:1059D0006FB9D4F864222AB904F29C42012101F083
:1059E0001DFE04E0D4F860221A44C4F8602259462F
:1059F000204603F093FA84E7DFF8B4C1614507D18C
:105A000011043FF576AF9006F1D520229A60EEE7BB
:105A1000002FECD1D4F86432002BE8D104F29C4280
:105A20003946DCE7049BD80740F19A805FFA8AF395
:105A300020680793194601F0CDFD10F0010F804654
:105A400020D06B6B01210AF00F0201FA02F223EA67
:105A500002036B63CBF80810A17901290DD1D7E9B6
:105A6000072313443B62BAF1000F06D1636A23B9DE
:105A7000206804F29C4201F0D1FD5FFA8AF12046D1
:105A800003F055FA18F0080F1CBF0823CBF80830B4
:105A900018F0100F1CBF1023CBF8083018F0400F7F
:105AA0001CBF4023CBF8083018F0020F10D051462D
:105AB000304601F0E3F9FB7D012B06D10023FB7595
:105AC0005FFA8AF1204603F085FA0223CBF808300A
:105AD00018F0800F44D0D7E909329A4240D8A3EB9E
